{
    "contractName": "Point",
    "abi": [
        {
            "inputs": [],
            "stateMutability": "nonpayable",
            "type": "constructor"
        },
        {
            "anonymous": false,
            "inputs": [
                {
                    "indexed": true,
                    "internalType": "address",
                    "name": "_from",
                    "type": "address"
                },
                {
                    "indexed": true,
                    "internalType": "address",
                    "name": "_to",
                    "type": "address"
                },
                {
                    "indexed": false,
                    "internalType": "uint256",
                    "name": "_value",
                    "type": "uint256"
                }
            ],
            "name": "Transfer",
            "type": "event"
        },
        {
            "inputs": [
                {
                    "internalType": "address",
                    "name": "account",
                    "type": "address"
                }
            ],
            "name": "balanceOf",
            "outputs": [
                {
                    "internalType": "uint256",
                    "name": "",
                    "type": "uint256"
                }
            ],
            "stateMutability": "view",
            "type": "function"
        },
        {
            "inputs": [],
            "name": "owner",
            "outputs": [
                {
                    "internalType": "address",
                    "name": "",
                    "type": "address"
                }
            ],
            "stateMutability": "view",
            "type": "function"
        },
        {
            "inputs": [],
            "name": "totalSupply",
            "outputs": [
                {
                    "internalType": "uint256",
                    "name": "",
                    "type": "uint256"
                }
            ],
            "stateMutability": "view",
            "type": "function"
        },
        {
            "inputs": [
                {
                    "internalType": "address",
                    "name": "to",
                    "type": "address"
                },
                {
                    "internalType": "uint256",
                    "name": "amount",
                    "type": "uint256"
                }
            ],
            "name": "transfer",
            "outputs": [],
            "stateMutability": "nonpayable",
            "type": "function"
        }
    ],
    "bytecode": "6080604052620f424060015534801561001757600080fd5b506001543360008181526002602052604081209290925581546001600160a01b0319161790556102a28061004c6000396000f3fe608060405234801561001057600080fd5b506004361061004c5760003560e01c806318160ddd1461005157806370a082311461006d5780638da5cb5b14610096578063a9059cbb146100c1575b600080fd5b61005a60015481565b6040519081526020015b60405180910390f35b61005a61007b3660046101de565b6001600160a01b031660009081526002602052604090205490565b6000546100a9906001600160a01b031681565b6040516001600160a01b039091168152602001610064565b6100d46100cf366004610200565b6100d6565b005b3360009081526002602052604090205481111561012d5760405162461bcd60e51b81526020600482015260116024820152704e6f7420656e6f75676820746f6b656e7360781b604482015260640160405180910390fd5b336000908152600260205260408120805483929061014c908490610240565b90915550506001600160a01b03821660009081526002602052604081208054839290610179908490610259565b90915550506040518181526001600160a01b0383169033907fddf252ad1be2c89b69c2b068fc378daa952ba7f163c4a11628f55a4df523b3ef9060200160405180910390a35050565b80356001600160a01b03811681146101d957600080fd5b919050565b6000602082840312156101f057600080fd5b6101f9826101c2565b9392505050565b6000806040838503121561021357600080fd5b61021c836101c2565b946020939093013593505050565b634e487b7160e01b600052601160045260246000fd5b818103818111156102535761025361022a565b92915050565b808201808211156102535761025361022a56fea2646970667358221220b81f2be82029c39bd63baa463a4cec671690e2164853d2cf0e8408529c864d1064736f6c63430008130033",
    "sourcePath": "c:/Users/Harry/OneDrive/Coding_Stuff/Web3/Project/thirdweb-app/contracts/points.sol",
    "compiler": {
        "name": "solc",
        "version": "0.8.19+commit.7dd6d404"
    },
    "functionHashes": {
        "balanceOf(address)": "70a08231",
        "owner()": "8da5cb5b",
        "totalSupply()": "18160ddd",
        "transfer(address,uint256)": "a9059cbb"
    },
    "gasEstimates": {
        "creation": {
            "codeDepositCost": "134800",
            "executionCost": "70802",
            "totalCost": "205602"
        },
        "external": {
            "balanceOf(address)": "2526",
            "owner()": "2359",
            "totalSupply()": "2262",
            "transfer(address,uint256)": "infinite"
        }
    }
}